:020000040800F2
:100000000028002015180008251600082B160008E7
:1000100031160008371600083D16000800000000E1
:10002000000000000000000000000000431600086F
:100030004F160008000000005B1600086716000855
:100040005D1800085D1800085D1800085D180008BC
:100050005D1800085D1800085D1800085D180008AC
:100060005D1800085D1800085D1800085D1800089C
:100070005D1800085D1800085D1800085D1800088C
:100080005D1800085D1800085D1800085D1800087C
:100090005D1800085D1800085D1800085D1800086C
:1000A0005D1800085D1800085D1800085D1800085C
:1000B000751600085D180008000000005D180008B3
:1000C0005D18000800000000000000005D18000836
:1000D000000000005D1800085D1800080000000026
:1000E0005D1800085D1800085D1800080000000099
:1000F0000000000000000000000000000000000000
:0C01000000000000000000005FF808F1A3
:10010C0010B5054C237833B9044B13B10448AFF345
:10011C0000800123237010BD84000020000000002B
:10012C004030000808B5034B1BB103490348AFF33B
:10013C00008008BD0000000088000020403000084E
:10014C0080B485B000AFF860B9601346FB80FB68E3
:10015C00BA68DA60FB68FA881A82FB6801229A7026
:10016C00FB689A78FB685A70FB685A78FB681A70BF
:10017C00FB680122DA70FB68C8229A60FB680022D7
:10018C001A7100BF1437BD4680BC704780B582B071
:10019C0000AF78607B685A787B681A707B689A78B5
:1001AC007B685A707B68DA687B681B8A1946104634
:1001BC0001F03AFE03461A467B689A707B681A78FF
:1001CC007B685B789A422DD17B685A787B689B78E8
:1001DC009A4227D17B68DA787B689B789A420ED05A
:1001EC007B689A787B68DA707B689B78002B19D1D6
:1001FC007B6801221A717B68C8229A6012E07B68C6
:10020C009B685A1E7B689A607B689B68002B09D19F
:10021C007B689B78002B05D17B6801221A717B6867
:10022C00C8229A6000BF0837BD4680BD80B500AFBC
:10023C00802209490948FFF783FF4FF48072064971
:10024C000748FFF77DFF4FF4007203490548FFF79D
:10025C0077FF00BF80BD00BF000C014010010020E3
:10026C00E8000020FC00002080B483B000AF786070
:10027C007B681B79012B04D17B6800221A71012346
:10028C0000E0002318460C37BD4680BC70470000C8
:10029C0080B500AF324B1B68013B032B56D801A233
:1002AC0052F823F0C1020008E1020008090300081B
:1002BC003103000800F0D6FF294B02221A60294BAB
:1002CC001B68294A82FB03129211DB17D31A274AA7
:1002DC00136042E001F072F8244B1B68002B37DCF2
:1002EC001F4B04221A60224B1B681F4A82FB03120D
:1002FC009211DB17D31A1D4A136029E001F080F824
:10030C001A4B1B68002B25DC154B02221A60154B6F
:10031C001B68154A82FB03129211DB17D31A134A7E
:10032C00136017E001F08EF8104B1B68002B13DCE8
:10033C000B4B03221A600F4B1B680B4A82FB0312F8
:10034C009211DB17D31A094A136005E000BF04E0D1
:10035C0000BF02E000BF00E000BF00BF80BD00BFD7
:10036C00A000002000000020D34D6210D40000201B
:10037C00080000200400002080B500AF324B1B6841
:10038C000B3B032B56D801A252F823F0A90300080B
:10039C00C9030008F10300081904000800F088FFE5
:1003AC00294B0E221A60294B1B68294A82FB031227
:1003BC009211DB17D31A274A136042E001F064F85C
:1003CC00244B1B68002B37DC1F4B0E221A601F4B73
:1003DC001B681F4A82FB03129211DB17D31A1D4AAA
:1003EC00136029E001F076F81A4B1B68002B25DC12
:1003FC00154B0C221A60184B1B68154A82FB031212
:10040C009211DB17D31A134A136017E001F088F826
:10041C00104B1B68002B13DC0B4B0D221A600F4B7F
:10042C001B680B4A82FB03129211DB17D31A094A81
:10043C00136005E000BF04E000BF02E000BF00E075
:10044C0000BF00BF80BD00BFA4000020080000203A
:10045C00D34D6210D80000200000002004000020C2
:10046C0080B500AFFFF714FFFFF786FF00BF80BD1C
:10047C0080B500AF224B1B68182B20D0182B2BDC1F
:10048C00162B02D0172B0DD026E000F097FF00F0B2
:10049C00FBFF1C4B1B681B4A12681146184600F0E8
:1004AC0001FE1AE000F0ACFF01F014F8164B1B68CB
:1004BC00154A12681146184600F0F4FD0DE000F0E4
:1004CC00C1FF01F02DF8114B1B68104A1268114640
:1004DC00184600F0E7FD00E000BF0D4B1B68002B39
:1004EC0008D10C4B65221A600B4B01221A600B4B86
:1004FC000B221A6000F05CFA00F0CAFA00BF80BD53
:10050C00A8000020B0000020B4000020B80000209B
:10051C00CC000020AC000020A0000020A400002093
:10052C0080B500AF01F096F900F062F800F0E8F841
:10053C0000F09AF8642200211F4800F05FFB322281
:10054C0000211E4800F05AFB012200211C4800F03B
:10055C0055FB012200211B4800F050FB0122002119
:10056C00194800F04BFB01220021184800F046FB13
:10057C0011220021164800F041FB6422002115488D
:10058C0000F03CFB0A220021134800F037FBFFF778
:10059C004DFE124802F0BCF8114B01221A60114BAF
:1005AC000B221A60104B65221A60104B00221A6045
:1005BC0000F0A6FB30BFFBE7DD17000801170008B1
:1005CC0071170008991700084117000859170008FF
:1005DC00A5170008D1170008F11700082401002006
:1005EC00A0000020A4000020AC000020D0000020BF
:1005FC0080B590B000AF07F11803282200211846EF
:10060C0002F04CFC3B1D00221A605A609A60DA60C2
:10061C001A610223BB610123BB621023FB6200231E
:10062C007B6307F11803184601F046FC0346002BC8
:10063C0001D000F0D8F80F237B600023BB600023AF
:10064C00FB6000233B6100237B613B1D00211846AE
:10065C0001F0B2FE0346002B01D000F0C4F800BF3D
:10066C004037BD4680BD000080B586B000AF07F1B5
:10067C00080300221A605A609A60DA603B46002236
:10068C001A605A601D4B4FF080421A601B4B41F6AA
:10069C003F725A60194B00229A60184B0922DA609B
:1006AC00164B00221A61154B00229A61134801F077
:1006BC00DFFF0346002B01D000F095F84FF4805378
:1006CC00BB6007F1080319460C4802F05DF90346BC
:1006DC00002B01D000F087F800233B6000237B60E7
:1006EC003B461946054802F035FB0346002B01D06A
:1006FC0000F079F800BF1837BD4680BD24010020FA
:10070C0080B586B000AF07F1080300221A605A606A
:10071C009A60DA60294B9B69284A43F00403936181
:10072C00264B9B6903F004037B607B68234B9B691E
:10073C00224A43F008039361204B9B6903F00803A2
:10074C003B603B6800224FF6FE711D4801F083FBB5
:10075C0000224FF67F411B4801F07DFB4FF6FE73E4
:10076C00BB600123FB6000233B6102237B6107F12B
:10077C0008031946124801F0DDF94FF67F43BB60C0
:10078C000123FB6000233B6102237B6107F108031B
:10079C0019460C4801F0CEF94FF46073BB6000238E
:1007AC00FB6001233B6107F108031946054801F082
:1007BC00C1F900BF1837BD4680BD00BF0010024014
:1007CC0000080140000C014080B582B000AF786099
:1007DC007B681B68B3F1804F01D100F06FFA00BF4A
:1007EC000837BD4680BD80B400AF72B600BFFEE7CF
:1007FC0080B400AF104B1B68162B03D10E4B172285
:10080C001A6014E00C4B1B68172B03D10A4B1822EF
:10081C001A600CE0084B1B68182B08D1074B65229B
:10082C001A60074B01221A60064B0B221A6000BF9C
:10083C00BD4680BC704700BFA8000020AC00002063
:10084C00A0000020A400002080B483B000AF78602A
:10085C007B68002B01DC012305E07B68632B01DD49
:10086C00012300E07B6818460C37BD4680BC7047FE
:10087C0080B483B000AF78601C4A7B6813601C4B5B
:10088C001B681C4A82FB03129211DB17D31A1A4AFB
:10089C0013601A4B1B68174A82FB03129211DB1769
:1008AC00D31A174A1360174B1B68124A82FB0312A8
:1008BC009211DB17D31A144A13600F4B1B68134A9F
:1008CC0013600F4B1B68124A13600F4B1B68114AC5
:1008DC001360114B00221A70104B4FF47A721A608D
:1008EC0000BF0C37BD4680BC704700BFA80000207D
:1008FC0000000020D34D6210B00000200400002046
:10090C00B400002008000020B8000020BC0000202B
:10091C00C0000020C40000206C010020CC0000208E
:10092C0080B400AF094B1B68094A1360094B1B6864
:10093C00094A1360094B1B68094A1360094B0022D2
:10094C001A7000BFBD4680BC704700BFBC000020C1
:10095C00B0000020C0000020B4000020C400002023
:10096C00B80000206C01002080B500AF0D48FFF7E7
:10097C007BFC0346002B12D00B4B1B68652B06D15E
:10098C00094B66221A601620FFF772FF07E0074B2F
:10099C001B78012B01D1FFF7C3FFFFF729FF00BF25
:1009AC0080BD00BF10010020AC0000206C010020B5
:1009BC0080B500AF2E48FFF757FC0346002B55D0EF
:1009CC002C4B1B68662B51D12B4B01221A702B4BD5
:1009DC004FF47A721A602A4B1B68182B20D0182BF4
:1009EC002BDC162B02D0172B0DD026E0254B1B68C9
:1009FC000133244A1360234B1A68234B1B68D31A08
:100A0C00224A13601AE0204B1B6801331E4A136004
:100A1C001C4B1A681C4B1B68D31A1C4A13600DE044
:100A2C001A4B1B680133194A1360164B1A68174B83
:100A3C001B68D31A144A136000E000BF114B1B68EB
:100A4C001846FFF701FF03460E4A13600F4B1B6855
:100A5C001846FFF7F9FE03460C4A13600A4B1B6855
:100A6C001846FFF7F1FE0346074A136000BF80BD2E
:100A7C00E8000020AC0000206C010020CC0000201D
:100A8C00A8000020B0000020B4000020B800002016
:100A9C0080B500AF3548FFF7E7FB0346002B63D06A
:100AAC00334B1B68662B5FD1324B1A68324B1B6879
:100ABC001A44324B1B689A4208D0304B05221A60FC
:100ACC002C4B02221A602C4B03221A602C4B1B68F5
:100ADC00182B28D0182B37DC162B02D0172B11D043
:100AEC0032E0264B1B684FF47A7202FB03F3254A63
:100AFC001360214B1B684FF47A7202FB03F3224AFA
:100B0C00136022E01B4B1B684FF47A7202FB03F359
:100B1C001E4A1360194B1B684FF47A7202FB03F3E5
:100B2C00184A136011E0144B1B684FF47A7202FBE5
:100B3C0003F3154A1360114B1B684FF47A7202FBD6
:100B4C0003F3104A136000E000BF114B00221A702F
:100B5C000A4B1B680F4A1360064B1B680E4A136046
:100B6C00054B1B680D4A136000BF80BDFC000020C4
:100B7C00AC000020B4000020B8000020B000002021
:100B8C00A800002000000020080000200400002025
:100B9C006C010020BC000020C0000020C40000201C
:100BAC0080B586B000AFF860B9607A60182002F0AA
:100BBC0065F903467B617B69002B01D1002316E0AC
:100BCC007B69FA681A607B69BA685A607B697A68D3
:100BDC009A607B6900221A747B6900225A61064B69
:100BEC001B685A1C04490A607A69D3607B691846F1
:100BFC001837BD4680BD00BF0C00002080B588B002
:100C0C0000AFF860B9607A607A68B968F868FFF785
:100C1C00C7FF38613B69002B49D0274B1B68002B61
:100C2C0003D1254A3B69136042E00023FB61224B50
:100C3C001B68BB61BB687B6109E0BB695B687A6957
:100C4C00D31A7B61BB69FB61BB695B69BB61BB6927
:100C5C00002B04D0BB695B687A699A42EDD23B6980
:100C6C007A695A60BB69002B05D0BB695A687B69ED
:100C7C00D21ABB695A60FB69002B07D10E4B1A685C
:100C8C003B695A610C4A3B69136005E03B69BA69E0
:100C9C005A61FB693A695A613B695B68002B07D161
:100CAC003B691B7C0133DAB23B691A7400E000BF6C
:100CBC002037BD4680BD00BFC800002080B400AF07
:100CCC000E4B1B68002B15D00C4B1B685B68002B64
:100CDC0004D00A4B1B685A68013A5A60074B1B68D0
:100CEC005B68002B07D1054B1B681A7C0132D2B212
:100CFC001A7400E000BFBD4680BC7047C8000020DD
:100D0C0080B582B000AF2DE01D4B1B681A7C013AF8
:100D1C00D2B21A741A4B1B687B60194B1B685B6947
:100D2C00174A1360164B1B68002B08D0144B1B681A
:100D3C0059687B685A68124B1B680A445A607B6876
:100D4C001B6898477B689B68002B08D07B681868E9
:100D5C007B6899687B689B681A46FFF74FFF786839
:100D6C0002F094F8064B1B68002B04D0044B1B6854
:100D7C001B7C002BC8D100BF0837BD4680BD00BF0F
:100D8C00C800002080B582B000AF78607B68092B6A
:100D9C0000F2808101A252F823F000BFD10D0008AF
:100DAC00190E0008610E0008A90E0008F10E0008CB
:100DBC00390F0008810F0008C90F00081110000836
:100DCC005910000800220121B54801F044F8002216
:100DDC000221B34801F03FF800220421B04801F091
:100DEC003AF800220821AE4801F035F80022102113
:100DFC00AB4801F030F800222021A94801F02BF873
:100E0C0001224021A64801F026F844E101220121EB
:100E1C00A34801F020F800220221A14801F01BF8A0
:100E2C00002204219E4801F016F8012208219C485A
:100E3C0001F011F801221021994801F00CF801225F
:100E4C002021974801F007F801224021944801F035
:100E5C0002F820E100220121914800F0FCFF002261
:100E6C0002218F4800F0F7FF012204218C4800F08A
:100E7C00F2FF002208218A4800F0EDFF0022102129
:100E8C00874800F0E8FF01222021854800F0E3FFAD
:100E9C0000224021824800F0DEFFFCE0002201210C
:100EAC007F4800F0D8FF002202217D4800F0D3FFDC
:100EBC00002204217A4800F0CEFF00220821784855
:100ECC0000F0C9FF01221021754800F0C4FF012277
:100EDC002021734800F0BFFF00224021704800F031
:100EEC00BAFFD8E0012201216D4800F0B4FF0022C6
:100EFC0002216B4800F0AFFF00220421684800F08B
:100F0C00AAFF01220821664800F0A5FF012210214A
:100F1C00634800F0A0FF00222021614800F09BFFF5
:100F2C00002240215E4800F096FFB4E0002201212F
:100F3C005B4800F090FF01220221594800F08BFF22
:100F4C0000220421564800F086FF00220821544854
:100F5C0000F081FF01221021514800F07CFF00229B
:100F6C0020214F4800F077FF002240214C4800F030
:100F7C0072FF90E000220121494800F06CFF012231
:100F8C000221474800F067FF00220421444800F08A
:100F9C0062FF00220821424800F05DFF0022102170
:100FAC003F4800F058FF002220213D4800F053FF3D
:100FBC00002240213A4800F04EFF6CE00022012153
:100FCC00374800F048FF00220221354800F043FF6B
:100FDC0000220421324800F03EFF01220821304853
:100FEC0000F039FF012210212D4800F034FF0122BE
:100FFC0020212B4800F02FFF01224021284800F02F
:10100C002AFF48E000220121254800F024FF00229D
:10101C000221234800F01FFF00220421204800F089
:10102C001AFF002208211E4800F015FF0022102193
:10103C001B4800F010FF00222021194800F00BFF84
:10104C0000224021164800F006FF24E00022012176
:10105C00134800F000FF00220221114800F0FBFEB3
:10106C00002204210E4800F0F6FE002208210C4854
:10107C0000F0F1FE01221021094800F0ECFE0022E4
:10108C002021074800F0E7FE00224021044800F030
:10109C00E2FE00E000BF00BF0837BD4680BD00BFC8
:1010AC00000C014080B483B000AF786039607B687D
:1010BC002B4A82FB03129210DB17D31A294A536076
:1010CC007968274B83FB01239A10CB17D21A13464E
:1010DC009B0013445B00CA1A224B9A603B68204A5F
:1010EC0082FB03129210DB17D31A1E4A1361396864
:1010FC001B4B83FB01239A10CB17D21A13469B0070
:10110C0013445B00CA1A174B5A61174B1B68652BAB
:10111C0006D1144B01221A60124B0122DA601AE03C
:10112C00124B1B68182B0ED0182B10DC162B02D070
:10113C00172B04D00BE00B4B02221A6007E0094B73
:10114C0003221A6003E0074B04221A6000BF054B10
:10115C001B68044AD36000BF0C37BD4680BC704787
:10116C006766666670010020AC000020A8000020B5
:10117C0080B582B000AF786001224FF47C412648E4
:10118C0000F069FE254A7B6852F823301846FFF7B9
:10119C00F9FD7B68052B39D801A252F823F000BF6A
:1011AC00C5110008D3110008E1110008EF11000867
:1011BC00FD1100080B12000800224FF48061164844
:1011CC0000F049FE23E000224FF40061124800F0C9
:1011DC0042FE1CE000224FF480510F4800F03BFE11
:1011EC0015E000224FF400510B4800F034FE0EE0E5
:1011FC0000224FF48041084800F02DFE07E0002249
:10120C004FF40041044800F026FE00E000BF00BF90
:10121C000837BD4680BD00BF000C014070010020A6
:10122C0080B500AF0D4B1B68002B04DD0B4B1B680E
:10123C00013B0A4A13600A4B1B68002B04DD084B68
:10124C001B68013B064A1360044B1B68044A126876
:10125C0011461846FFF726FF00BF80BDD4000020C2
:10126C00D800002080B500AF012220210F4800F0EB
:10127C00F2FD01224FF480710C4800F0ECFD0122CC
:10128C0040210A4800F0E7FD01224FF400710748A5
:10129C0000F0E1FD01221021044800F0DCFD0122E8
:1012AC008021024800F0D7FD00BF80BD000801403E
:1012BC0080B500AF01224FF40061114800F0CBFD66
:1012CC0001224FF480410E4800F0C5FD01224FF47D
:1012DC0080510B4800F0BFFD01224FF4004108483B
:1012EC0000F0B9FD01224FF48061054800F0B3FD18
:1012FC0001224FF40051024800F0ADFD00BF80BD4B
:10130C000008014080B584B000AFF8607A601A46DE
:10131C000B467B8113463B81104B1B78DBB2012BB8
:10132C000CD17B8900221946F86800F094FD3B89AA
:10133C0000221946786800F08EFD0BE07B890122B3
:10134C001946F86800F087FD3B8901221946786838
:10135C0000F081FD00BF1037BD4680BD100000209D
:10136C0080B584B000AFF8607A601A460B467B817A
:10137C0013463B81104B1B78DBB2012B0CD17B89C4
:10138C0000221946F86800F066FD3B8900221946D8
:10139C00786800F060FD0BE07B8901221946F86843
:1013AC0000F059FD3B8901221946786800F053FD85
:1013BC0000BF1037BD4680BD1100002080B500AFC6
:1013CC0080230E4A10210D48FFF79CFF012220219B
:1013DC000A4800F040FD01224FF48071074800F0EC
:1013EC003AFD01224021054800F035FD01224FF461
:1013FC000071024800F02FFD00BF80BD00080140C5
:10140C0080B500AF4FF480730D4A20210C48FFF7D4
:10141C0079FF012240210A4800F01DFD01224FF402
:10142C000071074800F017FD01221021044800F05C
:10143C0012FD01228021024800F00DFD00BF80BD8D
:10144C000008014080B500AF4FF400730D4A4021F5
:10145C000C48FFF757FF012210210A4800F0FBFC53
:10146C0001228021074800F0F6FC012220210548CA
:10147C0000F0F1FC01224FF48071024800F0EBFC0B
:10148C0000BF80BD0008014080B500AF4FF4005391
:10149C000F4A4FF480610E48FFF762FF01224FF4B0
:1014AC0000610B4800F0D7FC01224FF48041084842
:1014BC0000F0D1FC01224FF48051054800F0CBFC28
:1014CC0001224FF40041024800F0C5FC00BF80BD72
:1014DC000008014080B500AF4FF480430F4A4FF431
:1014EC0000610E48FFF73CFF01224FF480510B487E
:1014FC0000F0B1FC01224FF40041084800F0ABFCB5
:10150C0001224FF48061054800F0A5FC01224FF444
:10151C000051024800F09FFC00BF80BD0008014054
:10152C0080B500AF4FF400430F4A4FF480510E4882
:10153C00FFF716FF01224FF400610B4800F08BFC03
:10154C0001224FF48041084800F085FC01224FF441
:10155C008061054800F07FFC01224FF400510248E5
:10156C0000F079FC00BF80BD0008014080B485B05C
:10157C0000AF154B9B69144A43F001039361124B66
:10158C009B6903F00103BB60BB680F4BDB690E4A20
:10159C0043F08053D3610C4BDB6903F080537B60C9
:1015AC007B680A4B5B68FB60FB6823F0E063FB60C5
:1015BC00FB6843F08063FB60044AFB68536000BF28
:1015CC001437BD4680BC704700100240000001403B
:1015DC0080B584B000AF78607B681B68B3F1804F36
:1015EC0013D10C4BDB690B4A43F00103D361094B5C
:1015FC00DB6903F00103FB60FB68002200211C2067
:10160C0000F061FA1C2000F07AFA00BF1037BD46DA
:10161C0080BD00BF0010024080B400AFFEE780B474
:10162C0000AFFEE780B400AFFEE780B400AFFEE78A
:10163C0080B400AFFEE780B400AF00BFBD4680BCF5
:10164C00704780B400AF00BFBD4680BC704780B40B
:10165C0000AF00BFBD4680BC704780B500AF00F046
:10166C003FF900BF80BD000080B500AF024801F01B
:10167C009BF800BF80BD00BF2401002080B586B060
:10168C0000AF7860144A154BD31A7B617B693B61C0
:10169C00134B1B68002B02D1114B124A1A60104BD2
:1016AC001A687B6813443A699A4207D201F0BCFB72
:1016BC0003460C221A604FF0FF3309E0084B1B68FD
:1016CC00FB60074B1A687B681344054A1360FB6880
:1016DC0018461837BD4680BD0028002000040000C5
:1016EC00DC000020A001002080B400AF00BFBD468C
:1016FC0080BC704780B400AF0C4B1B78DBB2002B66
:10170C000CBF01230023DBB21A46084B1A70084B9E
:10171C001B78DBB2002B0CBF01230023DBB21A4673
:10172C00034B1A7000BFBD4680BC704710000020F0
:10173C001100002080B500AF034B1B68652B01D155
:10174C00FEF78EFE00BF80BDAC00002080B500AF60
:10175C00034B1B68662B01D1FEF78AFE00BF80BDD0
:10176C00AC00002080B500AF0548FEF70FFD054822
:10177C00FEF70CFD0448FEF709FD00BF80BD00BF5D
:10178C0010010020E8000020FC00002080B500AF14
:10179C00FFF7EAF800BF80BD80B500AF084B1B68AF
:1017AC005A1C07490A601846FFF7E2FC044B1B68F9
:1017BC00052B02DD024B00221A6000BF80BD00BF6A
:1017CC00D000002080B500AFFFF72AFD00BF80BD20
:1017DC0080B500AF0E21024800F055FB00BF80BD64
:1017EC000008014080B400AF064B1B68002B04D0EE
:1017FC00044B1B680A3B034A136000BFBD4680BC08
:10180C00704700BFCC000020FFF76EFF0B480C495F
:10181C000C4A002302E0D458C4500433C4188C4240
:10182C00F9D3094A094C002301E013600432A242A7
:10183C00FBD301F0FFFAFEF773FE704700000020A7
:10184C008400002084300008840000209C010020CB
:10185C00FEE7000080B500AF084B1B68074A43F059
:10186C0010031360032000F023F90F2000F008F898
:10187C00FFF77CFE0023184680BD00BF002002400D
:10188C0080B582B000AF7860124B1A68124B1B788F
:10189C0019464FF47A73B3FBF1F3B2FBF3F318462A
:1018AC0000F03BF90346002B01D001230EE07B68CE
:1018BC000F2B0AD8002279684FF0FF3000F003F9A3
:1018CC00064A7B681360002300E0012318460837A2
:1018DC00BD4680BD140000201C0000201800002014
:1018EC0080B400AF054B1B781A46054B1B6813449C
:1018FC00034A136000BFBD4680BC70471C0000202B
:10190C008801002080B400AF024B1B681846BD460E
:10191C0080BC70478801002080B485B000AF78602F
:10192C007B6803F00703FB600C4BDB68BB60BA6899
:10193C004FF6FF031340BB60FB681A02BB681343EE
:10194C0043F0BF6343F40033BB60044ABB68D3600D
:10195C0000BF1437BD4680BC704700BF00ED00E0EF
:10196C0080B400AF044BDB681B0A03F00703184676
:10197C00BD4680BC704700BF00ED00E080B483B072
:10198C0000AF0346FB7197F90730002B0BDBFB799B
:10199C0003F01F02064997F907305B09012000FA92
:1019AC0002F241F8232000BF0C37BD4680BC7047C3
:1019BC0000E100E080B483B000AF03463960FB71F6
:1019CC0097F90730002B0ADB3B68DAB20C4997F920
:1019DC0007301201D2B20B4483F800230AE03B68B3
:1019EC00DAB20849FB7903F00F03043B1201D2B2BF
:1019FC000B441A7600BF0C37BD4680BC704700BF45
:101A0C0000E100E000ED00E080B489B000AFF860C8
:101A1C00B9607A60FB6803F00703FB61FB69C3F1F3
:101A2C000703042B28BF0423BB61FB690433062B7B
:101A3C0002D9FB69033B00E000237B614FF0FF32CE
:101A4C00BB6902FA03F3DA43BB681A407B699A401C
:101A5C004FF0FF317B6901FA03F3D9437B680B40EC
:101A6C00134318462437BD4680BC704780B582B0FE
:101A7C0000AF78607B68013BB3F1807F01D3012319
:101A8C000FE00A4A7B68013B53600F214FF0FF3097
:101A9C00FFF790FF054B00229A60044B07221A6057
:101AAC00002318460837BD4680BD00BF10E000E09B
:101ABC0080B582B000AF78607868FFF72DFF00BF6B
:101ACC000837BD4680BD80B586B000AF0346B9600F
:101ADC007A60FB7300237B61FFF742FF78617A68C1
:101AEC00B9687869FFF790FF024697F90F301146F5
:101AFC001846FFF75FFF00BF1837BD4680BD80B5A5
:101B0C0082B000AF0346FB7197F907301846FFF718
:101B1C0035FF00BF0837BD4680BD80B582B000AF31
:101B2C0078607868FFF7A2FF034618460837BD4671
:101B3C0080BD000080B48BB000AF786039600023AA
:101B4C007B6200233B6248E101227B6A02FA03F3C9
:101B5C00FB613B681B68FA691340BB61BA69FB699E
:101B6C009A4240F037813B685B68A34A93425ED04F
:101B7C00A14A934275D8A14A934258D09F4A9342A6
:101B8C006FD89F4A934252D09D4A934269D89D4A3E
:101B9C0093424CD09B4A934263D89B4A934246D083
:101BAC00994A93425DD8122B2AD8122B59D801A2EC
:101BBC0052F823F03B1C0008151C0008271C0008D9
:101BCC00691C00086F1C00086F1C00086F1C0008C3
:101BDC006F1C00086F1C00086F1C00086F1C0008AD
:101BEC006F1C00086F1C00086F1C00086F1C00089D
:101BFC006F1C00086F1C00081D1C0008311C00081D
:101C0C00824A934213D02CE03B68DB683B6229E0AC
:101C1C003B68DB6804333B6224E03B68DB680833D9
:101C2C003B621FE03B68DB680C333B621AE03B68AD
:101C3C009B68002B02D104233B6213E03B689B683A
:101C4C00012B05D108233B627B68FA691A6109E014
:101C5C0008233B627B68FA695A6103E000233B620C
:101C6C0000E000BFBB69FF2B01D87B6801E07B68FB
:101C7C0004337B61BB69FF2B02D87B6A9B0002E0BB
:101C8C007B6A083B9B003B617B691A680F213B69AF
:101C9C0001FA03F3DB431A40396A3B6901FA03F397
:101CAC001A437B691A603B685B6803F08053002B16
:101CBC0000F09080564B9B69554A43F001039361A9
:101CCC00534B9B6903F00103BB60BB68514A7B6AB1
:101CDC009B08023352F82330FB607B6A03F003034A
:101CEC009B000F2202FA03F3DB43FA681340FB60FC
:101CFC007B68494A93420DD07B68484A934207D08F
:101D0C007B68474A934201D1022304E0032302E09B
:101D1C00012300E000237A6A02F003029200934050
:101D2C00FA681343FB603B497B6A9B080233FA68F1
:101D3C0041F823203B685B6803F48013002B06D02A
:101D4C00384B9A683749BB6913438B6006E0354BB7
:101D5C009A68BB69DB43334913408B603B685B6813
:101D6C0003F40013002B06D02E4BDA682D49BB6907
:101D7C001343CB6006E02B4BDA68BB69DB43294984
:101D8C001340CB603B685B6803F40033002B06D038
:101D9C00244B5A682349BB6913434B6006E0214B23
:101DAC005A68BB69DB431F4913404B603B685B6857
:101DBC0003F48033002B06D01A4B1A681949BB69FF
:101DCC0013430B6006E0174B1A68BB69DB431549DC
:101DDC0013400B607B6A01337B623B681A687B6A39
:101DEC0022FA03F3002B7FF4AFAE00BF00BF2C37F9
:101DFC00BD4680BC704700BF00003210000031109F
:101E0C000000221000002110000012100000111020
:101E1C00001002400000014000080140000C01408D
:101E2C00001001400004014080B485B000AF786020
:101E3C000B467B807B689A687B881340002B02D012
:101E4C000123FB7301E00023FB73FB7B1846143763
:101E5C00BD4680BC704780B483B000AF78600B4641
:101E6C007B8013467B707B78002B03D07A887B6851
:101E7C001A6103E07B881A047B681A6100BF0C3777
:101E8C00BD4680BC704780B485B000AF78600B460F
:101E9C007B807B68DB68FB607A88FB6813401A04E4
:101EAC00FB68D9437B880B401A437B681A6100BFDF
:101EBC001437BD4680BC704780B586B000AF7860E3
:101ECC007B68002B01D101236CE27B681B6803F05B
:101EDC000103002B00F08780924B5B6803F00C032E
:101EEC00042B0CD08F4B5B6803F00C03082B12D126
:101EFC008C4B5B6803F48033B3F5803F0BD1894B7B
:101F0C001B6803F40033002B6CD07B685B68002BE0
:101F1C0068D1012346E27B685B68B3F5803F06D14C
:101F2C00804B1B687F4A43F4803313602EE07B6840
:101F3C005B68002B0CD17B4B1B687A4A23F48033F3
:101F4C001360784B1B68774A23F4802313601DE0E1
:101F5C007B685B68B3F5A02F0CD1724B1B68714A80
:101F6C0043F4802313606F4B1B686E4A43F4803339
:101F7C0013600BE06B4B1B686A4A23F480331360CD
:101F8C00684B1B68674A23F4802313607B685B688B
:101F9C00002B13D0FFF7B6FC386108E0FFF7B2FC5A
:101FAC0002463B69D31A642B01D90323FAE15D4B3A
:101FBC001B6803F40033002BF0D014E0FFF7A2FCF5
:101FCC00386108E0FFF79EFC02463B69D31A642B8C
:101FDC0001D90323E6E1534B1B6803F40033002BB8
:101FEC00F0D100E000BF7B681B6803F00203002BFC
:101FFC0063D04C4B5B6803F00C03002B0BD0494BAC
:10200C005B6803F00C03082B1CD1464B5B6803F494
:10201C008033002B16D1434B1B6803F00203002BBB
:10202C0005D07B681B69012B01D00123BAE13D4B24
:10203C001B6823F0F8027B685B69DB0039491343AA
:10204C000B603AE07B681B69002B20D0364B0122D9
:10205C001A60FFF757FC386108E0FFF753FC0246A3
:10206C003B69D31A022B01D903239BE12D4B1B682F
:10207C0003F00203002BF0D02A4B1B6823F0F8026C
:10208C007B685B69DB00274913430B6015E0264B2B
:10209C0000221A60FFF736FC386108E0FFF732FCCB
:1020AC0002463B69D31A022B01D903237AE11D4B5B
:1020BC001B6803F00203002BF0D17B681B6803F054
:1020CC000803002B3AD07B689B69002B19D0174B67
:1020DC0001221A60FFF716FC386108E0FFF712FCCA
:1020EC0002463B69D31A022B01D903235AE10D4B4B
:1020FC005B6A03F00203002BF0D0012000F09AFA87
:10210C001CE00A4B00221A60FFF7FCFB38610FE061
:10211C00FFF7F8FB02463B69D31A022B08D90323BD
:10212C0040E100BF001002400000424280044242E5
:10213C009E4B5B6A03F00203002BE9D17B681B68A2
:10214C0003F00403002B00F0A6800023FB75974BD3
:10215C00DB6903F08053002B0DD1944BDB69934A60
:10216C0043F08053D361914BDB6903F08053BB6028
:10217C00BB680123FB758E4B1B6803F48073002B2B
:10218C0018D18B4B1B688A4A43F480731360FFF79A
:10219C00B9FB386108E0FFF7B5FB02463B69D31A7F
:1021AC00642B01D90323FDE0814B1B6803F480737E
:1021BC00002BF0D07B68DB68012B06D17B4B1B6AB4
:1021CC007A4A43F0010313622DE07B68DB68002B35
:1021DC000CD1764B1B6A754A23F001031362734BC7
:1021EC001B6A724A23F0040313621CE07B68DB68F1
:1021FC00052B0CD16D4B1B6A6C4A43F00403136224
:10220C006A4B1B6A694A43F0010313620BE0674B8C
:10221C001B6A664A23F001031362644B1B6A634A10
:10222C0023F0040313627B68DB68002B15D0FFF7E7
:10223C0069FB38610AE0FFF765FB02463B69D31A7C
:10224C0041F28832934201D90323ABE0574B1B6A0E
:10225C0003F00203002BEED014E0FFF753FB3861C0
:10226C000AE0FFF74FFB02463B69D31A41F2883272
:10227C00934201D9032395E04C4B1B6A03F00203F4
:10228C00002BEED1FB7D012B05D1484BDB69474A76
:10229C0023F08053D3617B68DB69002B00F08180D5
:1022AC00424B5B6803F00C03082B61D07B68DB6945
:1022BC00022B46D13F4B00221A60FFF723FB3861FB
:1022CC0008E0FFF71FFB02463B69D31A022B01D92A
:1022DC00032367E0354B1B6803F00073002BF0D130
:1022EC007B681B6AB3F5803F08D1304B5B6823F4E5
:1022FC0000327B689B682D4913434B602B4B5B680A
:10230C0023F474127B68196A7B685B6A0B43274958
:10231C0013434B60274B01221A60FFF7F3FA386125
:10232C0008E0FFF7EFFA02463B69D31A022B01D9FA
:10233C00032337E01D4B1B6803F00073002BF0D018
:10234C002FE01C4B00221A60FFF7DCFA386108E022
:10235C00FFF7D8FA02463B69D31A022B01D90323A3
:10236C0020E0124B1B6803F00073002BF0D118E037
:10237C007B68DB69012B01D1012313E00B4B5B68FC
:10238C00FB60FB6803F480327B681B6A9A4206D1BF
:10239C00FB6803F470127B685B6A9A4201D00123DC
:1023AC0000E0002318461837BD4680BD00100240DF
:1023BC00007000406000424280B584B000AF78608D
:1023CC0039607B68002B01D10123D0E06A4B1B687C
:1023DC0003F007033A689A4210D9674B1B6823F045
:1023EC00070265493B6813430B60634B1B6803F0A2
:1023FC0007033A689A4201D00123B8E07B681B6856
:10240C0003F00203002B20D07B681B6803F004034D
:10241C00002B05D0594B5B68584A43F4E06353607A
:10242C007B681B6803F00803002B05D0534B5B68DB
:10243C00524A43F460535360504B5B6823F0F002F4
:10244C007B689B684D4913434B607B681B6803F0AA
:10245C000103002B40D07B685B68012B07D1474BF5
:10246C001B6803F40033002B15D101237FE07B683C
:10247C005B68022B07D1414B1B6803F00073002BE8
:10248C0009D1012373E03D4B1B6803F00203002BC1
:10249C0001D101236BE0394B5B6823F003027B68AD
:1024AC005B68364913434B60FFF72CFAF8600AE07F
:1024BC00FFF728FA0246FB68D31A41F2883293429E
:1024CC0001D9032353E02D4B5B6803F00C027B68AE
:1024DC005B689B009A42EBD1274B1B6803F0070308
:1024EC003A689A4210D2244B1B6823F00702224907
:1024FC003B6813430B60204B1B6803F007033A68DF
:10250C009A4201D0012332E07B681B6803F004037C
:10251C00002B08D0194B5B6823F4E0627B68DB6806
:10252C00164913434B607B681B6803F00803002BB0
:10253C0009D0124B5B6823F460527B681B69DB008B
:10254C000E4913434B6000F021F802460B4B5B68BD
:10255C001B0903F00F030A49CB5C22FA03F3094A67
:10256C001360094B1B681846FFF78AF900231846BD
:10257C001037BD4680BD00BF002002400010024055
:10258C0058300008140000201800002080B487B0D8
:10259C0000AF0023FB600023BB6000237B610023A2
:1025AC007B6000233B611E4B5B68FB60FB6803F0A8
:1025BC000C03042B02D0082B03D027E0194B3B61F2
:1025CC0027E0FB689B0C03F00F03174AD35C7B607E
:1025DC00FB6803F48033002B10D0114B5B685B0C51
:1025EC0003F00103114AD35CBB607B680D4A02FB0C
:1025FC0003F2BB68B2FBF3F37B6104E07B680C4A2B
:10260C0002FB03F37B617B693B6102E0054B3B61A1
:10261C0000BF3B6918461C37BD4680BC704700BFE5
:10262C000010024000127A00683000087830000870
:10263C0000093D0080B485B000AF78600A4B1B6880
:10264C000A4AA2FB03235B0A7A6802FB03F3FB60D2
:10265C0000BFFB685A1EFA60002BF9D100BF00BF07
:10266C001437BD4680BC704714000020D34D621057
:10267C0080B582B000AF78607B68002B01D101235C
:10268C0041E07B6893F83D30DBB2002B06D17B68D0
:10269C00002283F83C207868FEF79AFF7B680222C0
:1026AC0083F83D207B681A687B6804331946104612
:1026BC0000F056FA7B68012283F846207B680122E1
:1026CC0083F83E207B68012283F83F207B6801223F
:1026DC0083F840207B68012283F841207B6801222B
:1026EC0083F842207B68012283F843207B68012217
:1026FC0083F844207B68012283F845207B68012203
:10270C0083F83D20002318460837BD4680BD0000E5
:10271C0080B485B000AF78607B6893F83D30DBB255
:10272C00012B01D0012335E07B68022283F83D2088
:10273C007B681B68DA687B681B6842F00102DA6010
:10274C007B681B68164A934209D07B681B68B3F1FF
:10275C00804F04D07B681B68124A934211D17B686E
:10276C001B689B6803F00703FB60FB68062B10D00B
:10277C007B681B681A687B681B6842F001021A6050
:10278C0007E07B681B681A687B681B6842F00102D3
:10279C001A60002318461437BD4680BC704700BF32
:1027AC00002C01400004004080B584B000AF78607C
:1027BC007B681B68DB68FB607B681B681B69BB6004
:1027CC00BB6803F00203002B20D0FB6803F002036C
:1027DC00002B1BD07B681B686FF002021A617B68B0
:1027EC0001221A777B681B689B6903F00303002B9B
:1027FC0003D0786800F098F905E0786800F08BF960
:10280C00786800F09AF97B6800221A77BB6803F0AD
:10281C000403002B20D0FB6803F00403002B1BD017
:10282C007B681B686FF004021A617B6802221A77BE
:10283C007B681B689B6903F44073002B03D078689A
:10284C0000F072F905E0786800F065F9786800F03E
:10285C0074F97B6800221A77BB6803F00803002B1D
:10286C0020D0FB6803F00803002B1BD07B681B688F
:10287C006FF008021A617B6804221A777B681B6868
:10288C00DB6903F00303002B03D0786800F04CF9EC
:10289C0005E0786800F03FF9786800F04EF97B6845
:1028AC0000221A77BB6803F01003002B20D0FB68C2
:1028BC0003F01003002B1BD07B681B686FF0100219
:1028CC001A617B6808221A777B681B68DB6903F442
:1028DC004073002B03D0786800F026F905E0786887
:1028EC0000F019F9786800F028F97B6800221A7753
:1028FC00BB6803F00103002B0CD0FB6803F0010351
:10290C00002B07D07B681B686FF001021A61786896
:10291C00FDF75AFFBB6803F08003002B0CD0FB685B
:10292C0003F08003002B07D07B681B686FF08002DC
:10293C001A61786800F06FFABB6803F04003002B53
:10294C000CD0FB6803F04003002B07D07B681B689E
:10295C006FF040021A61786800F0F8F8BB6803F079
:10296C002003002B0CD0FB6803F02003002B07D0B6
:10297C007B681B686FF020021A61786800F042FADD
:10298C0000BF1037BD4680BD80B584B000AF786005
:10299C0039600023FB737B6893F83C30012B01D129
:1029AC000223B4E07B68012283F83C207B6802227E
:1029BC0083F83D207B681B689B68BB60BB6823F079
:1029CC007703BB60BB6823F47F43BB607B681B68E9
:1029DC00BA689A603B681B68B3F5005F3ED0B3F5EC
:1029EC00005F00F28780B3F5805F00F08680B3F55E
:1029FC00805F7FD8702B1AD0702B7BD8602B50D077
:102A0C00602B77D8502B3CD0502B73D8402B58D000
:102A1C00402B6FD8302B64D0302B6BD8202B60D050
:102A2C00202B67D8002B5CD0102B5AD062E07B682F
:102A3C0018683B6899683B685A683B68DB6800F02B
:102A4C006AF97B681B689B68BB60BB6843F07703C3
:102A5C00BB607B681B68BA689A604FE07B6818683B
:102A6C003B6899683B685A683B68DB6800F053F92F
:102A7C007B681B689A687B681B6842F480429A608A
:102A8C003CE07B6818683B6859683B68DB681A4611
:102A9C0000F0CAF87B681B685021184600F021F939
:102AAC002CE07B6818683B6859683B68DB681A4601
:102ABC0000F0E8F87B681B686021184600F011F9FB
:102ACC001CE07B6818683B6859683B68DB681A46F1
:102ADC0000F0AAF87B681B684021184600F001F949
:102AEC000CE07B681A683B681B681946104600F0BE
:102AFC00F8F803E00123FB7300E000BF7B680122C0
:102B0C0083F83D207B68002283F83C20FB7B184631
:102B1C001037BD4680BD80B483B000AF786000BF75
:102B2C000C37BD4680BC704780B483B000AF786072
:102B3C0000BF0C37BD4680BC704780B483B000AF7B
:102B4C00786000BF0C37BD4680BC704780B483B042
:102B5C0000AF786000BF0C37BD4680BC70470000EA
:102B6C0080B485B000AF786039607B681B68FB600F
:102B7C007B682B4A934207D07B68B3F1804F03D01C
:102B8C007B68284A934208D1FB6823F07003FB60F2
:102B9C003B685B68FA681343FB607B68204A93428E
:102BAC0007D07B68B3F1804F03D07B681D4A9342FA
:102BBC0008D1FB6823F44073FB603B68DB68FA6860
:102BCC001343FB60FB6823F080023B685B69134393
:102BDC00FB607B68FA681A603B689A687B68DA620B
:102BEC003B681A687B689A627B680D4A934203D1F2
:102BFC003B681A697B681A637B6801225A617B689F
:102C0C001B6903F00103002B05D07B681B6923F0C3
:102C1C0001027B681A6100BF1437BD4680BC704747
:102C2C00002C01400004004080B487B000AFF86075
:102C3C00B9607A60FB681B6A7B61FB681B6A23F0D6
:102C4C000102FB681A62FB689B693B613B6923F0DC
:102C5C00F0033B617B681B013A6913433B617B6961
:102C6C0023F00A037B617A69BB6813437B61FB68C1
:102C7C003A699A61FB687A691A6200BF1C37BD46D3
:102C8C0080BC704780B487B000AFF860B9607A60E0
:102C9C00FB681B6A7B61FB681B6A23F01002FB68F4
:102CAC001A62FB689B693B613B6923F470433B618F
:102CBC007B681B033A6913433B617B6923F0A003D8
:102CCC007B61BB681B017A6913437B61FB683A69C2
:102CDC009A61FB687A691A6200BF1C37BD4680BCDA
:102CEC00704780B485B000AF786039607B689B68B2
:102CFC00FB60FB6823F07003FB603A68FB681343CE
:102D0C0043F00703FB607B68FA689A6000BF1437D6
:102D1C00BD4680BC704780B487B000AFF860B96026
:102D2C007A603B60FB689B687B617B6923F47F4323
:102D3C007B613B681A027B681A43BB6813437A6950
:102D4C0013437B61FB687A699A6000BF1C37BD46F0
:102D5C0080BC704780B485B000AF786039607B6808
:102D6C0093F83C30012B01D1022341E07B68012216
:102D7C0083F83C207B68022283F83D207B681B682B
:102D8C005B68FB607B681B689B68BB60FB6823F01F
:102D9C007003FB603B681B68FA681343FB607B683D
:102DAC001B68FA685A607B681B68144A934209D006
:102DBC007B681B68B3F1804F04D07B681B68104A9A
:102DCC0093420CD1BB6823F08003BB603B685B680B
:102DDC00BA681343BB607B681B68BA689A607B68EF
:102DEC00012283F83D207B68002283F83C200023DD
:102DFC0018461437BD4680BC704700BF002C0140FC
:102E0C000004004080B483B000AF786000BF0C3782
:102E1C00BD4680BC704780B483B000AF786000BF03
:102E2C000C37BD4680BC7047014B1868704700BF1B
:102E3C002000002070B500260C4D0D4C641BA41016
:102E4C00A64209D100F0F6F800260A4D0A4C641B84
:102E5C00A410A64205D170BD55F8043B9847013625
:102E6C00EEE755F8043B98470136F2E77C30000852
:102E7C007C3000087C30000880300008024B014692
:102E8C00186800F05FB800BF20000020024B01461C
:102E9C00186800F00BB800BF200000200346024465
:102EAC00934200D1704703F8011BF9E738B505468A
:102EBC00002943D051F8043C0C1F002BB8BFE41878
:102ECC0000F0AAF81E4A1368104633B96360146008
:102EDC002846BDE8384000F0A5B8A3420AD92168BD
:102EEC006218934201BF1A685B68521822606360D3
:102EFC000460EDE71A465B680BB1A342FAD911687E
:102F0C005018A0420BD12068014450188342116024
:102F1C00DED118685B68014411605360D8E702D9B0
:102F2C000C232B60D4E7206821188B4201BF196851
:102F3C005B680918216063605460C9E738BD00BF45
:102F4C00E0000020F8B5CD1C25F0030508350C2D4C
:102F5C0038BF0C25002D064601DBA94203D90C23F2
:102F6C0033600020F8BD00F057F821490A68144678
:102F7C009CB9204F3B6823B92146304600F03CF801
:102F8C0038602946304600F037F8431C23D10C2317
:102F9C003046336000F046F8E3E723685B1B17D438
:102FAC000B2B03D923601C44256004E06368A24208
:102FBC000CBF0B605360304600F034F804F10B008A
:102FCC00231D20F00700C21ACCD01B1AA350C9E74E
:102FDC0022466468CCE7C41C24F00304A042E3D06E
:102FEC00211A304600F008F80130DDD1CFE700BFE0
:102FFC00E0000020E400002038B50023054D044615
:10300C0008462B60FEF73AFB431C02D12B6803B138
:10301C00236038BD8C010020014800F009B800BFC6
:10302C0094010020014800F004B800BF9401002076
:10303C0070477047F8B500BFF8BC08BC9E46704797
:0C304C00F8B500BFF8BC08BC9E467047F9
:103058000000000000000000010203040607080940
:1030680002030405060708090A0B0C0D0E0F1010C1
:043078000102000051
:04307C003101000816
:043080000D01000836
:1030840088130000D0070000B80B00000100000006
:103094000101000000127A0010000000010000008D
:1030A40024000020000000000000000000000000D8
:1030B400000000000000000000000000000000000C
:1030C40000000000000000000000000000000000FC
:1030D40000000000000000000000000000000000EC
:1030E40000000000000000000000000000000000DC
:1030F40000000000000000000000000000000000CC
:0431040000000000C7
:0400000508001815C2
:00000001FF
