:020000040800F2
:100000000028002011170008A5150008AB150008EE
:10001000B1150008B7150008BD1500080000000064
:10002000000000000000000000000000C3150008F0
:10003000CF15000800000000DB150008E7150008D8
:1000400059170008591700085917000859170008D0
:1000500059170008591700085917000859170008C0
:1000600059170008591700085917000859170008B0
:1000700059170008591700085917000859170008A0
:100080005917000859170008591700085917000890
:100090005917000859170008591700085917000880
:1000A0005917000859170008591700085917000870
:1000B000F51500085917000800000000591700083E
:1000C0005917000800000000000000005917000840
:1000D0000000000059170008591700080000000030
:1000E00059170008591700085917000800000000A8
:1000F0000000000000000000000000000000000000
:0C01000000000000000000005FF808F1A3
:10010C0010B5054C237833B9044B13B10448AFF345
:10011C0000800123237010BD180000200000000097
:10012C00882D000808B5034B1BB103490348AFF3F6
:10013C00008008BD000000001C000020882D000875
:10014C0080B485B000AFF860B9601346FB80FB68E3
:10015C00BA68DA60FB68FA881A82FB6801229A7026
:10016C00FB689A78FB685A70FB685A78FB681A70BF
:10017C00FB680122DA70FB68C8229A60FB680022D7
:10018C001A7100BF1437BD4680BC704780B582B071
:10019C0000AF78607B685A787B681A707B689A78B5
:1001AC007B685A707B68DA687B681B8A1946104634
:1001BC0001F0B8FD03461A467B689A707B681A7882
:1001CC007B685B789A422DD17B685A787B689B78E8
:1001DC009A4227D17B68DA787B689B789A420ED05A
:1001EC007B689A787B68DA707B689B78002B19D1D6
:1001FC007B6801221A717B68C8229A6012E07B68C6
:10020C009B685A1E7B689A607B689B68002B09D19F
:10021C007B689B78002B05D17B6801221A717B6867
:10022C00C8229A6000BF0837BD4680BD80B500AFBC
:10023C00802209490948FFF783FF4FF48072064971
:10024C000748FFF77DFF4FF4007203490548FFF79D
:10025C0077FF00BF80BD00BF000C01409000002064
:10026C00680000207C00002080B483B000AF786070
:10027C007B681B79012B04D17B6800221A71012346
:10028C0000E0002318460C37BD4680BC70470000C8
:10029C0080B500AF454B1B68013B032B7AD801A2FC
:1002AC0052F823F0C1020008F902000831030008DB
:1002BC006903000800F0A6FF3D4801F0DEF9034693
:1002CC00002B69D0394B02221A603A4B1B683A4A10
:1002DC0082FB03129211DB17D31A384A1360354B89
:1002EC001B681946324801F099F955E001F026F8DF
:1002FC002F4801F0C2F90346002B4FD02B4B0422A0
:10030C001A602F4B1B682C4A82FB03129211DB17CD
:10031C00D31A2A4A13602A4B1B681946244801F049
:10032C007DF93BE001F02CF8214801F0A6F90346D9
:10033C00002B35D01D4B02221A601E4B1B681E4A27
:10034C0082FB03129211DB17D31A1C4A1360194B50
:10035C001B681946164801F061F921E001F032F8EA
:10036C00134801F08AF90346002B1BD00F4B0322D4
:10037C001A60144B1B68104A82FB03129211DB1794
:10038C00D31A0E4A13600F4B1B681946084801F02C
:10039C0045F907E000BF06E000BF04E000BF02E043
:1003AC0000BF00E000BF00BF80BD00BF34000020D4
:1003BC002801002000000020D34D621060000020B6
:1003CC00080000200400002080B500AF454B1B68DE
:1003DC000B3B032B7AD801A252F823F0F903000847
:1003EC003104000869040008A104000800F030FF83
:1003FC003D4801F042F90346002B69D0394B0E22DF
:10040C001A603A4B1B683A4A82FB03129211DB17B3
:10041C00D31A384A1360354B1B681946324801F021
:10042C00FDF855E000F0F0FF2F4801F026F90346E7
:10043C00002B4FD02B4B0E221A602C4B1B682C4AD6
:10044C0082FB03129211DB17D31A2A4A1360274B33
:10045C001B681946244801F0E1F83BE000F0FAFF74
:10046C00214801F00AF90346002B35D01D4B0C2214
:10047C001A60214B1B681E4A82FB03129211DB1778
:10048C00D31A1C4A13601C4B1B681946164801F002
:10049C00C5F821E001F004F8134801F0EEF803462A
:1004AC00002B1BD00F4B0D221A60144B1B68104AEB
:1004BC0082FB03129211DB17D31A0E4A13600F4BF7
:1004CC001B681946084801F0A9F807E000BF06E0D0
:1004DC0000BF04E000BF02E000BF00E000BF00BFAF
:1004EC0080BD00BF3800002008010020080000205B
:1004FC00D34D621064000020000000200400002096
:10050C0080B500AFFFF7C4FEFFF75EFF00F04AFEB8
:10051C0000BF80BD80B500AF254B1B68182B20D0C9
:10052C00182B2BDC162B02D0172B0DD026E000F04D
:10053C0005FF00F069FF1F4B1B681E4A126811462D
:10054C00184600F071FD1AE000F01AFF00F082FF6F
:10055C00194B1B68184A12681146184600F064FDC6
:10056C000DE000F02FFF00F09BFF144B1B68134AAB
:10057C0012681146184600F057FD00E000BF104805
:10058C0001F07BF80346002B0CD00E4B65221A6051
:10059C000D4B01221A600D4B0B221A6064210C4882
:1005AC0001F03CF800F0B6FA00F026FB00BF80BD6D
:1005BC003C00002044000020480000204C0000209B
:1005CC0010010020400000203400002038000020E2
:1005DC002801002080B500AF01F0BAF800F088F8CF
:1005EC0000F00EF900F0C0F8FFF720FE01F058F80B
:1005FC00314802F00BF8314B01221A60304B0B22C0
:10060C001A60304B65221A6064212F4801F006F8FD
:10061C0064212E4801F002F864212D4800F0FEFF01
:10062C0064212C4800F0FAFF64212B4800F0F6FFFF
:10063C0064212A4800F0F2FF6421294800F0EEFF03
:10064C006421284800F0EAFF234801F016F803461D
:10065C00002B08D00E21244801F093FB4FF47A7143
:10066C001D4800F0DBFF00F031FA164B1B68652BC0
:10067C0001D1FFF745FF134B1B68662B01D1FFF728
:10068C0049FF144800F0F9FF0346002BDCD0174B50
:10069C001B685A1C15490A60184600F02BFD134BB9
:1006AC001B68052B02DD114B00221A60A52109489D
:1006BC0000F0B4FFC8E700BFA40000203400002005
:1006CC0038000020400000202801002008010020F4
:1006DC0040010020200100203801002010010020E2
:1006EC001801002030010020000801405C000020AF
:1006FC0080B590B000AF07F11803282200211846EE
:10070C0002F034FB3B1D00221A605A609A60DA60DA
:10071C001A610223BB610123BB621023FB6200231D
:10072C007B6307F11803184601F044FB0346002BCA
:10073C0001D000F009F90F237B600023BB6000237C
:10074C00FB6000233B6100237B613B1D00211846AD
:10075C0001F0B0FD0346002B01D000F0F5F800BF0E
:10076C004037BD4680BD000080B586B000AF07F1B4
:10077C00080300221A605A609A60DA603B46002235
:10078C001A605A601D4B4FF080421A601B4B41F6A9
:10079C003F725A60194B00229A60184B0922DA609A
:1007AC00164B00221A61154B00229A61134801F076
:1007BC00DDFE0346002B01D000F0C6F84FF4805349
:1007CC00BB6007F1080319460C4802F05BF80346BE
:1007DC00002B01D000F0B8F800233B6000237B60B5
:1007EC003B461946054802F033FA0346002B01D06C
:1007FC0000F0AAF800BF1837BD4680BDA400002049
:10080C0080B586B000AF07F1080300221A605A6069
:10081C009A60DA60294B9B69284A43F00403936180
:10082C00264B9B6903F004037B607B68234B9B691D
:10083C00224A43F008039361204B9B6903F00803A1
:10084C003B603B6800224FF6FE711D4801F081FAB7
:10085C0000224FF67F411B4801F07BFA4FF6FE73E6
:10086C00BB600123FB6000233B6102237B6107F12A
:10087C0008031946124801F0DBF84FF67F43BB60C2
:10088C000123FB6000233B6102237B6107F108031A
:10089C0019460C4801F0CCF84FF46073BB60002390
:1008AC00FB6001233B6107F108031946054801F081
:1008BC00BFF800BF1837BD4680BD00BF0010024016
:1008CC0000080140000C014080B582B000AF786098
:1008DC00124800F0B9FE124800F0B6FE114800F0C4
:1008EC00B3FE114800F0B0FE104800F0ADFE104809
:1008FC0000F0AAFE0F4800F0A7FE0F4800F0A4FE7F
:10090C000E48FFF743FC0E48FFF740FC0D48FFF77D
:10091C003DFC00BF0837BD4680BD00BF280100204C
:10092C000801002040010020200100203801002097
:10093C001001002018010020300100209000002040
:10094C00680000207C00002080B400AF72B600BFAD
:10095C00FEE7000080B400AF104B1B68162B03D1D0
:10096C000E4B17221A6014E00C4B1B68172B03D18B
:10097C000A4B18221A600CE0084B1B68182B08D184
:10098C00074B65221A60074B01221A60064B0B229B
:10099C001A6000BFBD4680BC704700BF3C00002001
:1009AC0040000020340000203800002080B483B0C8
:1009BC0000AF78607B68002B01DC012305E07B68CD
:1009CC00632B01DD012300E07B6818460C37BD4624
:1009DC0080BC704780B582B000AF78601C4A7B68E1
:1009EC0013601C4B1B681C4A82FB03129211DB1711
:1009FC00D31A1A4A13601A4B1B68174A82FB03124C
:100A0C009211DB17D31A174A1360174B1B68124A43
:100A1C0082FB03129211DB17D31A144A13600F4B8B
:100A2C001B68134A13600F4B1B68124A13600F4B61
:100A3C001B68114A1360114B00221A7042F210719C
:100A4C000F4800F0EBFD00BF0837BD4680BD00BF6E
:100A5C003C00002000000020D34D62104400002018
:100A6C000400002048000020080000204C0000205A
:100A7C00500000205400002058000020EC00002002
:100A8C001001002080B400AF094B1B68094A1360A9
:100A9C00094B1B68094A1360094B1B68094A136010
:100AAC00094B00221A7000BFBD4680BC704700BFC6
:100ABC00500000204400002054000020480000207A
:100ACC00580000204C000020EC00002080B500AF46
:100ADC000D48FFF7C9FB0346002B12D00B4B1B68CC
:100AEC00652B06D1094B66221A601620FFF772FFA0
:100AFC0007E0074B1B78012B01D1FFF7C3FFFFF772
:100B0C0029FF00BF80BD00BF9000002040000020E6
:100B1C00EC00002080B500AF2F48FFF7A5FB034683
:100B2C00002B56D02D4B1B68662B52D12C4B01221F
:100B3C001A7042F210712B4800F070FD2A4B1B68A2
:100B4C00182B20D0182B2BDC162B02D0172B0DD0EA
:100B5C0026E0264B1B680133244A1360234B1A688A
:100B6C00234B1B68D31A234A13601AE0204B1B68D3
:100B7C0001331F4A13601D4B1A681D4B1B68D31A97
:100B8C001C4A13600DE01B4B1B680133194A1360A0
:100B9C00164B1A68174B1B68D31A154A136000E0E2
:100BAC0000BF124B1B681846FFF700FF03460F4AA5
:100BBC001360104B1B681846FFF7F8FE03460D4AEE
:100BCC0013600B4B1B681846FFF7F0FE0346084AF0
:100BDC00136000BF80BD00BF6800002040000020F3
:100BEC00EC000020100100203C00002044000020FC
:100BFC00480000204C00002080B500AF3548FFF7BE
:100C0C0033FB0346002B63D0334B1B68662B5FD141
:100C1C00324B1A68324B1B681A44324B1B689A428F
:100C2C0008D0304B05221A602C4B02221A602C4B38
:100C3C0003221A602C4B1B68182B28D0182B37DC7E
:100C4C00162B02D0172B11D032E0264B1B684FF419
:100C5C007A7202FB03F3254A1360214B1B684FF495
:100C6C007A7202FB03F3224A136022E01B4B1B68CF
:100C7C004FF47A7202FB03F31E4A1360194B1B6884
:100C8C004FF47A7202FB03F3184A136011E0144B11
:100C9C001B684FF47A7202FB03F3154A1360114B75
:100CAC001B684FF47A7202FB03F3104A136000E0E6
:100CBC0000BF114B00221A700A4B1B680F4A1360BD
:100CCC00064B1B680E4A1360054B1B680D4A1360DC
:100CDC0000BF80BD7C0000204000002048000020A8
:100CEC004C000020440000203C00002000000020AC
:100CFC000800002004000020EC0000205000002020
:100D0C00540000205800002080B582B000AF7860FD
:100D1C007B68092B00F2808101A252F823F000BFFE
:100D2C00550D00089D0D0008E50D00082D0E00085E
:100D3C00750E0008BD0E0008050F00084D0F0008C9
:100D4C00950F0008DD0F000800220121B54801F0C5
:100D5C0000F800220221B34800F0FBFF002204211E
:100D6C00B04800F0F6FF00220821AE4800F0F1FF79
:100D7C0000221021AB4800F0ECFF00222021A948F2
:100D8C0000F0E7FF01224021A64800F0E2FF44E119
:100D9C0001220121A34800F0DCFF00220221A1481E
:100DAC0000F0D7FF002204219E4800F0D2FF012260
:100DBC0008219C4800F0CDFF01221021994800F039
:100DCC00C8FF01222021974800F0C3FF01224021D7
:100DDC00944800F0BEFF20E100220121914800F070
:100DEC00B8FF002202218F4800F0B3FF012204213A
:100DFC008C4800F0AEFF002208218A4800F0A9FFC1
:100E0C0000221021874800F0A4FF012220218548F0
:100E1C0000F09FFF00224021824800F09AFFFCE086
:100E2C00002201217F4800F094FF002202217D481E
:100E3C0000F08FFF002204217A4800F08AFF002284
:100E4C000821784800F085FF01221021754800F038
:100E5C0080FF01222021734800F07BFF00224021FB
:100E6C00704800F076FFD8E0012201216D4800F0B7
:100E7C0070FF002202216B4800F06BFF002204215E
:100E8C00684800F066FF01220821664800F061FF07
:100E9C0001221021634800F05CFF002220216148F0
:100EAC0000F057FF002240215E4800F052FFB4E0F2
:100EBC00002201215B4800F04CFF0122022159481D
:100ECC0000F047FF00220421564800F042FF0022A8
:100EDC000821544800F03DFF01221021514800F038
:100EEC0038FF002220214F4800F033FF0022402120
:100EFC004C4800F02EFF90E000220121494800F000
:100F0C0028FF01220221474800F023FF0022042180
:100F1C00444800F01EFF00220821424800F019FF4F
:100F2C00002210213F4800F014FF002220213D48F0
:100F3C0000F00FFF002240213A4800F00AFF6CE05D
:100F4C0000220121374800F004FF0022022135481D
:100F5C0000F0FFFE00220421324800F0FAFE0122CC
:100F6C000821304800F0F5FE012210212D4800F038
:100F7C00F0FE012220212B4800F0EBFE0122402143
:100F8C00284800F0E6FE48E000220121254800F048
:100F9C00E0FE00220221234800F0DBFE00220421A7
:100FAC00204800F0D6FE002208211E4800F0D1FE99
:100FBC00002210211B4800F0CCFE002220211948F1
:100FCC0000F0C7FE00224021164800F0C2FE24E0CB
:100FDC0000220121134800F0BCFE0022022111481E
:100FEC0000F0B7FE002204210E4800F0B2FE0022F1
:100FFC0008210C4800F0ADFE01221021094800F038
:10100C00A8FE00222021074800F0A3FE0022402168
:10101C00044800F09EFE00E000BF00BF0837BD464C
:10102C0080BD00BF000C014080B483B000AF78607D
:10103C0039607B682B4A82FB03129210DB17D31AA0
:10104C00294A53607968274B83FB01239A10CB17ED
:10105C00D21A13469B0013445B00CA1A224B9A60A7
:10106C003B68204A82FB03129210DB17D31A1E4AEC
:10107C00136139681B4B83FB01239A10CB17D21ACF
:10108C0013469B0013445B00CA1A174B5A61174B4B
:10109C001B68652B06D1144B01221A60124B0122DE
:1010AC00DA601AE0124B1B68182B0ED0182B10DCD0
:1010BC00162B02D0172B04D00BE00B4B02221A601C
:1010CC0007E0094B03221A6003E0074B04221A6065
:1010DC0000BF054B1B68044AD36000BF0C37BD46EC
:1010EC0080BC704767666666F000002040000020F8
:1010FC003C00002080B582B000AF786001224FF434
:10110C007C41264800F025FE254A7B6852F82330A6
:10111C001846FFF7F9FD7B68052B39D801A252F868
:10112C0023F000BF49110008571100086511000891
:10113C0073110008811100088F11000800224FF470
:10114C008061164800F005FE23E000224FF4006198
:10115C00124800F0FEFD1CE000224FF480510F48B5
:10116C0000F0F7FD15E000224FF400510B4800F0A1
:10117C00F0FD0EE000224FF48041084800F0E9FD3C
:10118C0007E000224FF40041044800F0E2FD00E0CB
:10119C0000BF00BF0837BD4680BD00BF000C01403A
:1011AC00F000002080B500AF134800F066FA03464B
:1011BC00002B1ED04FF47A710F4800F02FFA0F4B12
:1011CC001B68002B04DD0D4B1B68013B0B4A1360A5
:1011DC000B4B1B68002B04DD094B1B68013B084AB9
:1011EC001360064B1B68064A126811461846FFF737
:1011FC001BFF00BF80BD00BF40010020600000202D
:10120C006400002080B500AF012220210F4800F0BF
:10121C00A0FD01224FF480710C4800F09AFD0122D0
:10122C0040210A4800F095FD01224FF40071074857
:10123C0000F08FFD01221021044800F08AFD0122EC
:10124C008021024800F085FD00BF80BD00080140F0
:10125C0080B500AF01224FF40061114800F079FD18
:10126C0001224FF480410E4800F073FD01224FF42F
:10127C0080510B4800F06DFD01224FF400410848ED
:10128C0000F067FD01224FF48061054800F061FD1C
:10129C0001224FF40051024800F05BFD00BF80BDFD
:1012AC000008014080B584B000AFF8607A601A463F
:1012BC000B467B8113463B810C4800F0DEF903465C
:1012CC00002B0ED07B891946F86800F05AFD3B893B
:1012DC001946786800F055FD4FF4FA71034800F098
:1012EC009DF900BF1037BD4680BD00BF180100201E
:1012FC0080B584B000AFF8607A601A460B467B81EB
:10130C0013463B810C4800F0B8F90346002B0ED075
:10131C007B891946F86800F034FD3B8919467868DA
:10132C0000F02FFD4FF4FA71034800F077F900BF7D
:10133C001037BD4680BD00BF3001002080B500AF26
:10134C0080230E4A10210D48FFF7ACFF012220210B
:10135C000A4800F0FEFC01224FF48071074800F0AF
:10136C00F8FC01224021054800F0F3FC01224FF467
:10137C000071024800F0EDFC00BF80BD0008014088
:10138C0080B500AF4FF480730D4A20210C48FFF755
:10139C0089FF012240210A4800F0DBFC01224FF4B6
:1013AC000071074800F0D5FC01221021044800F020
:1013BC00D0FC01228021024800F0CBFC00BF80BD94
:1013CC000008014080B500AF4FF400730D4A402176
:1013DC000C48FFF767FF012210210A4800F0B9FC06
:1013EC0001228021074800F0B4FC0122202105488D
:1013FC0000F0AFFC01224FF48071024800F0A9FC10
:10140C0000BF80BD0008014080B500AF4FF4005311
:10141C000F4A4FF480610E48FFF76AFF01224FF428
:10142C0000610B4800F095FC01224FF48041084804
:10143C0000F08FFC01224FF48051054800F089FC2C
:10144C0001224FF40041024800F083FC00BF80BD34
:10145C000008014080B500AF4FF480430F4A4FF4B1
:10146C0000610E48FFF744FF01224FF480510B48F6
:10147C0000F06FFC01224FF40041084800F069FCB9
:10148C0001224FF48061054800F063FC01224FF407
:10149C000051024800F05DFC00BF80BD0008014017
:1014AC0080B500AF4FF400430F4A4FF480510E4803
:1014BC00FFF71EFF01224FF400610B4800F049FCBE
:1014CC0001224FF48041084800F043FC01224FF404
:1014DC008061054800F03DFC01224FF400510248A8
:1014EC0000F037FC00BF80BD0008014080B485B01F
:1014FC0000AF154B9B69144A43F001039361124BE7
:10150C009B6903F00103BB60BB680F4BDB690E4AA0
:10151C0043F08053D3610C4BDB6903F080537B6049
:10152C007B680A4B5B68FB60FB6823F0E063FB6045
:10153C00FB6843F08063FB60044AFB68536000BFA8
:10154C001437BD4680BC70470010024000000140BB
:10155C0080B584B000AF78607B681B68B3F1804FB6
:10156C0013D10C4BDB690B4A43F00103D361094BDC
:10157C00DB6903F00103FB60FB68002200211C20E7
:10158C0000F01FFA1C2000F038FA00BF1037BD46DF
:10159C0080BD00BF0010024080B400AFFEE780B4F5
:1015AC0000AFFEE780B400AFFEE780B400AFFEE70B
:1015BC0080B400AFFEE780B400AF00BFBD4680BC76
:1015CC00704780B400AF00BFBD4680BC704780B48C
:1015DC0000AF00BFBD4680BC704780B500AF00F0C7
:1015EC00FDF800BF80BD000080B500AF024801F0DF
:1015FC0059F800BF80BD00BFA400002080B483B0A8
:10160C0000AF78607B6800221A607B6800221A7138
:10161C0000BF0C37BD4680BC7047000080B483B05F
:10162C0000AF786039603B68064AA2FB0323DA08F6
:10163C007B681A607B6800221A7100BF0C37BD46AC
:10164C0080BC7047CDCCCCCC80B483B000AF78607C
:10165C007B681B68002B0BD07B681B685A1E7B6851
:10166C001A607B681B68002B02D17B6801221A71FF
:10167C0000BF0C37BD4680BC704780B483B000AF50
:10168C0078607B681B79012B04D17B6800221A716E
:10169C00012300E0002318460C37BD4680BC704780
:1016AC0080B500AF0C48FFF7A9FF0C48FFF7A6FF69
:1016BC000B48FFF7A3FF0B48FFF7A0FF0A48FFF703
:1016CC009DFF0A48FFF79AFF0948FFF797FF094863
:1016DC00FFF794FF00BF80BD280100200801002007
:1016EC0040010020200100203801002010010020C2
:1016FC00180100203001002080B400AF00BFBD46AF
:10170C0080BC7047FFF7F8FF0B480C490C4A0023CC
:10171C0002E0D458C4500433C4188C42F9D3094A9B
:10172C00094C002301E013600432A242FBD301F008
:10173C00F9FAFEF74FFF7047000000201800002058
:10174C00CC2D0008180000204C010020FEE7000002
:10175C0080B500AF084B1B68074A43F010031360B9
:10176C00032000F023F90F2000F008F8FFF7BEFE6D
:10177C000023184680BD00BF0020024080B582B017
:10178C0000AF7860124B1A68124B1B7819464FF455
:10179C007A73B3FBF1F3B2FBF3F3184600F03BF9A9
:1017AC000346002B01D001230EE07B680F2B0AD8D7
:1017BC00002279684FF0FF3000F003F9064A7B688D
:1017CC001360002300E0012318460837BD4680BD96
:1017DC000C000020140000201000002080B400AF8A
:1017EC00054B1B781A46054B1B681344034A1360C0
:1017FC0000BFBD4680BC704714000020480100208B
:10180C0080B400AF024B1B681846BD4680BC7047C5
:10181C004801002080B485B000AF78607B6803F08D
:10182C000703FB600C4BDB68BB60BA684FF6FF0329
:10183C001340BB60FB681A02BB68134343F0BF63E1
:10184C0043F40033BB60044ABB68D36000BF143759
:10185C00BD4680BC704700BF00ED00E080B400AF17
:10186C00044BDB681B0A03F007031846BD4680BC1B
:10187C00704700BF00ED00E080B483B000AF0346BA
:10188C00FB7197F90730002B0BDBFB7903F01F0280
:10189C00064997F907305B09012000FA02F241F87A
:1018AC00232000BF0C37BD4680BC704700E100E030
:1018BC0080B483B000AF03463960FB7197F90730F1
:1018CC00002B0ADB3B68DAB20C4997F9073012019E
:1018DC00D2B20B4483F800230AE03B68DAB2084921
:1018EC00FB7903F00F03043B1201D2B20B441A76BE
:1018FC0000BF0C37BD4680BC704700BF00E100E064
:10190C0000ED00E080B489B000AFF860B9607A6097
:10191C00FB6803F00703FB61FB69C3F10703042BAE
:10192C0028BF0423BB61FB690433062B02D9FB6976
:10193C00033B00E000237B614FF0FF32BB6902FAEE
:10194C0003F3DA43BB681A407B699A404FF0FF31CE
:10195C007B6901FA03F3D9437B680B4013431846A8
:10196C002437BD4680BC704780B582B000AF78602C
:10197C007B68013BB3F1807F01D301230FE00A4A5E
:10198C007B68013B53600F214FF0FF30FFF790FF56
:10199C00054B00229A60044B07221A60002318465C
:1019AC000837BD4680BD00BF10E000E080B582B0B6
:1019BC0000AF78607868FFF72DFF00BF0837BD4691
:1019CC0080BD80B586B000AF0346B9607A60FB730A
:1019DC0000237B61FFF742FF78617A68B968786908
:1019EC00FFF790FF024697F90F3011461846FFF7A4
:1019FC005FFF00BF1837BD4680BD80B582B000AF19
:101A0C000346FB7197F907301846FFF735FF00BF07
:101A1C000837BD4680BD80B582B000AF786078686D
:101A2C00FFF7A2FF034618460837BD4680BD0000ED
:101A3C0080B48BB000AF7860396000237B620023E8
:101A4C003B6248E101227B6A02FA03F3FB613B68CB
:101A5C001B68FA691340BB61BA69FB699A4240F092
:101A6C0037813B685B68A34A93425ED0A14A93429C
:101A7C0075D8A14A934258D09F4A93426FD89F4A37
:101A8C00934252D09D4A934269D89D4A93424CD07E
:101A9C009B4A934263D89B4A934246D0994A9342BD
:101AAC005DD8122B2AD8122B59D801A252F823F048
:101ABC00371B0008111B0008231B0008651B0008BE
:101ACC006B1B00086B1B00086B1B00086B1B0008D2
:101ADC006B1B00086B1B00086B1B00086B1B0008C2
:101AEC006B1B00086B1B00086B1B00086B1B0008B2
:101AFC006B1B0008191B00082D1B0008824A93421F
:101B0C0013D02CE03B68DB683B6229E03B68DB6868
:101B1C0004333B6224E03B68DB6808333B621FE024
:101B2C003B68DB680C333B621AE03B689B68002B1C
:101B3C0002D104233B6213E03B689B68012B05D167
:101B4C0008233B627B68FA691A6109E008233B624F
:101B5C007B68FA695A6103E000233B6200E000BF36
:101B6C00BB69FF2B01D87B6801E07B6804337B6188
:101B7C00BB69FF2B02D87B6A9B0002E07B6A083BA7
:101B8C009B003B617B691A680F213B6901FA03F3E7
:101B9C00DB431A40396A3B6901FA03F31A437B6948
:101BAC001A603B685B6803F08053002B00F0908058
:101BBC00564B9B69554A43F001039361534B9B6908
:101BCC0003F00103BB60BB68514A7B6A9B0802337C
:101BDC0052F82330FB607B6A03F003039B000F2257
:101BEC0002FA03F3DB43FA681340FB607B68494A53
:101BFC0093420DD07B68484A934207D07B68474A92
:101C0C00934201D1022304E0032302E0012300E00C
:101C1C0000237A6A02F0030292009340FA6813439D
:101C2C00FB603B497B6A9B080233FA6841F823202E
:101C3C003B685B6803F48013002B06D0384B9A6822
:101C4C003749BB6913438B6006E0354B9A68BB6917
:101C5C00DB43334913408B603B685B6803F4001330
:101C6C00002B06D02E4BDA682D49BB691343CB6091
:101C7C0006E02B4BDA68BB69DB4329491340CB6088
:101C8C003B685B6803F40033002B06D0244B5A6886
:101C9C002349BB6913434B6006E0214B5A68BB696F
:101CAC00DB431F4913404B603B685B6803F4803394
:101CBC00002B06D01A4B1A681949BB6913430B60E9
:101CCC0006E0174B1A68BB69DB43154913400B60E0
:101CDC007B6A01337B623B681A687B6A22FA03F3E6
:101CEC00002B7FF4AFAE00BF00BF2C37BD4680BCCD
:101CFC00704700BF000032100000311000002210AD
:101D0C000000211000001210000011100010024001
:101D1C000000014000080140000C0140001001408F
:101D2C000004014080B485B000AF78600B467B8026
:101D3C007B689A687B881340002B02D00123FB73CD
:101D4C0001E00023FB73FB7B18461437BD4680BCB7
:101D5C00704780B483B000AF78600B467B8013462D
:101D6C007B707B78002B03D07A887B681A6103E048
:101D7C007B881A047B681A6100BF0C37BD4680BC97
:101D8C00704780B485B000AF78600B467B807B6871
:101D9C00DB68FB607A88FB6813401A04FB68D94344
:101DAC007B880B401A437B681A6100BF1437BD4611
:101DBC0080BC704780B586B000AF78607B68002B24
:101DCC0001D101236CE27B681B6803F00103002B3B
:101DDC0000F08780924B5B6803F00C03042B0CD053
:101DEC008F4B5B6803F00C03082B12D18C4B5B6898
:101DFC0003F48033B3F5803F0BD1894B1B6803F49C
:101E0C000033002B6CD07B685B68002B68D10123FE
:101E1C0046E27B685B68B3F5803F06D1804B1B685C
:101E2C007F4A43F4803313602EE07B685B68002BA1
:101E3C000CD17B4B1B687A4A23F480331360784BAC
:101E4C001B68774A23F4802313601DE07B685B6872
:101E5C00B3F5A02F0CD1724B1B68714A43F480234D
:101E6C0013606F4B1B686E4A43F4803313600BE0B6
:101E7C006B4B1B686A4A23F480331360684B1B68F6
:101E8C00674A23F4802313607B685B68002B13D0B4
:101E9C00FFF7B6FC386108E0FFF7B2FC02463B697D
:101EAC00D31A642B01D90323FAE15D4B1B6803F4AD
:101EBC000033002BF0D014E0FFF7A2FC386108E0EF
:101ECC00FFF79EFC02463B69D31A642B01D903230E
:101EDC00E6E1534B1B6803F40033002BF0D100E018
:101EEC0000BF7B681B6803F00203002B63D04C4BD4
:101EFC005B6803F00C03002B0BD0494B5B6803F0C1
:101F0C000C03082B1CD1464B5B6803F48033002B6D
:101F1C0016D1434B1B6803F00203002B05D07B68E2
:101F2C001B69012B01D00123BAE13D4B1B6823F047
:101F3C00F8027B685B69DB00394913430B603AE0BC
:101F4C007B681B69002B20D0364B01221A60FFF7EF
:101F5C0057FC386108E0FFF753FC02463B69D31A83
:101F6C00022B01D903239BE12D4B1B6803F00203C9
:101F7C00002BF0D02A4B1B6823F0F8027B685B69BE
:101F8C00DB00274913430B6015E0264B00221A6037
:101F9C00FFF736FC386108E0FFF732FC02463B697C
:101FAC00D31A022B01D903237AE11D4B1B6803F0D2
:101FBC000203002BF0D17B681B6803F00803002B95
:101FCC003AD07B689B69002B19D0174B01221A6001
:101FDC00FFF716FC386108E0FFF712FC02463B697C
:101FEC00D31A022B01D903235AE10D4B5B6A03F080
:101FFC000203002BF0D0012000F09AFA1CE00A4BEF
:10200C0000221A60FFF7FCFB38610FE0FFF7F8FBCA
:10201C0002463B69D31A022B08D9032340E100BFC7
:10202C000010024000004242800442429E4B5B6A18
:10203C0003F00203002BE9D17B681B6803F0040357
:10204C00002B00F0A6800023FB75974BDB6903F097
:10205C008053002B0DD1944BDB69934A43F0805392
:10206C00D361914BDB6903F08053BB60BB680123E8
:10207C00FB758E4B1B6803F48073002B18D18B4BB4
:10208C001B688A4A43F480731360FFF7B9FB38610D
:10209C0008E0FFF7B5FB02463B69D31A642B01D964
:1020AC000323FDE0814B1B6803F48073002BF0D0FD
:1020BC007B68DB68012B06D17B4B1B6A7A4A43F0A9
:1020CC00010313622DE07B68DB68002B0CD1764B8F
:1020DC001B6A754A23F001031362734B1B6A724A25
:1020EC0023F0040313621CE07B68DB68052B0CD126
:1020FC006D4B1B6A6C4A43F0040313626A4B1B6AF8
:10210C00694A43F0010313620BE0674B1B6A664A92
:10211C0023F001031362644B1B6A634A23F004032C
:10212C0013627B68DB68002B15D0FFF769FB386105
:10213C000AE0FFF765FB02463B69D31A41F288328D
:10214C00934201D90323ABE0574B1B6A03F0020304
:10215C00002BEED014E0FFF753FB38610AE0FFF7D9
:10216C004FFB02463B69D31A41F28832934201D9A4
:10217C00032395E04C4B1B6A03F00203002BEED1BA
:10218C00FB7D012B05D1484BDB69474A23F080537B
:10219C00D3617B68DB69002B00F08180424B5B686C
:1021AC0003F00C03082B61D07B68DB69022B46D152
:1021BC003F4B00221A60FFF723FB386108E0FFF762
:1021CC001FFB02463B69D31A022B01D9032367E09C
:1021DC00354B1B6803F00073002BF0D17B681B6A36
:1021EC00B3F5803F08D1304B5B6823F400327B6839
:1021FC009B682D4913434B602B4B5B6823F4741283
:10220C007B68196A7B685B6A0B43274913434B60F5
:10221C00274B01221A60FFF7F3FA386108E0FFF749
:10222C00EFFA02463B69D31A022B01D9032337E09C
:10223C001D4B1B6803F00073002BF0D02FE01C4BE0
:10224C0000221A60FFF7DCFA386108E0FFF7D8FAD1
:10225C0002463B69D31A022B01D9032320E0124B0F
:10226C001B6803F00073002BF0D118E07B68DB696E
:10227C00012B01D1012313E00B4B5B68FB60FB6866
:10228C0003F480327B681B6A9A4206D1FB6803F424
:10229C0070127B685B6A9A4201D0012300E0002334
:1022AC0018461837BD4680BD001002400070004033
:1022BC006000424280B584B000AF786039607B68C2
:1022CC00002B01D10123D0E06A4B1B6803F00703FC
:1022DC003A689A4210D9674B1B6823F0070265498C
:1022EC003B6813430B60634B1B6803F007033A68AE
:1022FC009A4201D00123B8E07B681B6803F002030B
:10230C00002B20D07B681B6803F00403002B05D046
:10231C00594B5B68584A43F4E06353607B681B6815
:10232C0003F00803002B05D0534B5B68524A43F46F
:10233C0060535360504B5B6823F0F0027B689B68E2
:10234C004D4913434B607B681B6803F00103002B62
:10235C0040D07B685B68012B07D1474B1B6803F4AB
:10236C000033002B15D101237FE07B685B68022BC7
:10237C0007D1414B1B6803F00073002B09D10123DB
:10238C0073E03D4B1B6803F00203002B01D10123CA
:10239C006BE0394B5B6823F003027B685B68364962
:1023AC0013434B60FFF72CFAF8600AE0FFF728FAAA
:1023BC000246FB68D31A41F28832934201D90323B7
:1023CC0053E02D4B5B6803F00C027B685B689B0051
:1023DC009A42EBD1274B1B6803F007033A689A42E9
:1023EC0010D2244B1B6823F0070222493B6813438D
:1023FC000B60204B1B6803F007033A689A4201D02C
:10240C00012332E07B681B6803F00403002B08D027
:10241C00194B5B6823F4E0627B68DB681649134355
:10242C004B607B681B6803F00803002B09D0124B30
:10243C005B6823F460527B681B69DB000E49134315
:10244C004B6000F021F802460B4B5B681B0903F054
:10245C000F030A49CB5C22FA03F3094A1360094BB8
:10246C001B681846FFF78AF9002318461037BD463B
:10247C0080BD00BF0020024000100240A02D0008CB
:10248C000C0000201000002080B487B000AF0023A7
:10249C00FB600023BB6000237B6100237B60002377
:1024AC003B611E4B5B68FB60FB6803F00C03042B69
:1024BC0002D0082B03D027E0194B3B6127E0FB68C7
:1024CC009B0C03F00F03174AD35C7B60FB6803F48F
:1024DC008033002B10D0114B5B685B0C03F00103B5
:1024EC00114AD35CBB607B680D4A02FB03F2BB68EC
:1024FC00B2FBF3F37B6104E07B680C4A02FB03F351
:10250C007B617B693B6102E0054B3B6100BF3B6932
:10251C0018461C37BD4680BC704700BF00100240F7
:10252C0000127A00B02D0008C02D000800093D00F3
:10253C0080B485B000AF78600A4B1B680A4AA2FBD6
:10254C0003235B0A7A6802FB03F3FB6000BFFB68A2
:10255C005A1EFA60002BF9D100BF00BF1437BD46DC
:10256C0080BC70470C000020D34D621080B582B047
:10257C0000AF78607B68002B01D1012341E07B68C0
:10258C0093F83D30DBB2002B06D17B68002283F838
:10259C003C207868FEF7DCFF7B68022283F83D2044
:1025AC007B681A687B6804331946104600F056FAAB
:1025BC007B68012283F846207B68012283F83E2049
:1025CC007B68012283F83F207B68012283F840203E
:1025DC007B68012283F841207B68012283F842202A
:1025EC007B68012283F843207B68012283F8442016
:1025FC007B68012283F845207B68012283F83D200B
:10260C00002318460837BD4680BD000080B485B055
:10261C0000AF78607B6893F83D30DBB2012B01D0C2
:10262C00012335E07B68022283F83D207B681B6820
:10263C00DA687B681B6842F00102DA607B681B6811
:10264C00164A934209D07B681B68B3F1804F04D0C3
:10265C007B681B68124A934211D17B681B689B688C
:10266C0003F00703FB60FB68062B10D07B681B682C
:10267C001A687B681B6842F001021A6007E07B68ED
:10268C001B681A687B681B6842F001021A60002301
:10269C0018461437BD4680BC704700BF002C014063
:1026AC000004004080B584B000AF78607B681B6884
:1026BC00DB68FB607B681B681B69BB60BB6803F055
:1026CC000203002B20D0FB6803F00203002B1BD06D
:1026DC007B681B686FF002021A617B6801221A7713
:1026EC007B681B689B6903F00303002B03D078689D
:1026FC0000F098F905E0786800F08BF9786800F044
:10270C009AF97B6800221A77BB6803F00403002B4C
:10271C0020D0FB6803F00403002B1BD07B681B68E4
:10272C006FF004021A617B6802221A777B681B68BF
:10273C009B6903F44073002B03D0786800F072F9A6
:10274C0005E0786800F065F9786800F074F97B684A
:10275C0000221A77BB6803F00803002B20D0FB681B
:10276C0003F00803002B1BD07B681B686FF008027A
:10277C001A617B6804221A777B681B68DB6903F09B
:10278C000303002B03D0786800F04CF905E078685F
:10279C0000F03FF9786800F04EF97B6800221A7758
:1027AC00BB6803F01003002B20D0FB6803F0100370
:1027BC00002B1BD07B681B686FF010021A617B68C2
:1027CC0008221A777B681B68DB6903F44073002BC3
:1027DC0003D0786800F026F905E0786800F019F964
:1027EC00786800F028F97B6800221A77BB6803F040
:1027FC000103002B0CD0FB6803F00103002B07D066
:10280C007B681B686FF001021A617868FEF75CF850
:10281C00BB6803F08003002B0CD0FB6803F0800333
:10282C00002B07D07B681B686FF080021A617868F8
:10283C0000F06FFABB6803F04003002B0CD0FB6870
:10284C0003F04003002B07D07B681B686FF040023D
:10285C001A61786800F0F8F8BB6803F02003002BCD
:10286C000CD0FB6803F02003002B07D07B681B689F
:10287C006FF020021A61786800F042FA00BF10373E
:10288C00BD4680BD80B584B000AF78603960002350
:10289C00FB737B6893F83C30012B01D10223B4E02D
:1028AC007B68012283F83C207B68022283F83D2060
:1028BC007B681B689B68BB60BB6823F07703BB60BD
:1028CC00BB6823F47F43BB607B681B68BA689A6063
:1028DC003B681B68B3F5005F3ED0B3F5005F00F2B8
:1028EC008780B3F5805F00F08680B3F5805F7FD87A
:1028FC00702B1AD0702B7BD8602B50D0602B77D8D4
:10290C00502B3CD0502B73D8402B58D0402B6FD829
:10291C00302B64D0302B6BD8202B60D0202B67D879
:10292C00002B5CD0102B5AD062E07B6818683B6897
:10293C0099683B685A683B68DB6800F06AF97B6809
:10294C001B689B68BB60BB6843F07703BB607B680C
:10295C001B68BA689A604FE07B6818683B68996896
:10296C003B685A683B68DB6800F053F97B681B686E
:10297C009A687B681B6842F480429A603CE07B68F2
:10298C0018683B6859683B68DB681A4600F0CAF85F
:10299C007B681B685021184600F021F92CE07B68FD
:1029AC0018683B6859683B68DB681A4600F0E8F821
:1029BC007B681B686021184600F011F91CE07B68ED
:1029CC0018683B6859683B68DB681A4600F0AAF83F
:1029DC007B681B684021184600F001F90CE07B680D
:1029EC001A683B681B681946104600F0F8F803E0BB
:1029FC000123FB7300E000BF7B68012283F83D20BC
:102A0C007B68002283F83C20FB7B18461037BD46C0
:102A1C0080BD80B483B000AF786000BF0C37BD467A
:102A2C0080BC704780B483B000AF786000BF0C37B7
:102A3C00BD4680BC704780B483B000AF786000BFE7
:102A4C000C37BD4680BC704780B483B000AF786053
:102A5C0000BF0C37BD4680BC7047000080B485B009
:102A6C0000AF786039607B681B68FB607B682B4A21
:102A7C00934207D07B68B3F1804F03D07B68284A20
:102A8C00934208D1FB6823F07003FB603B685B68E2
:102A9C00FA681343FB607B68204A934207D07B683B
:102AAC00B3F1804F03D07B681D4A934208D1FB6879
:102ABC0023F44073FB603B68DB68FA681343FB60EC
:102ACC00FB6823F080023B685B691343FB607B6807
:102ADC00FA681A603B689A687B68DA623B681A6825
:102AEC007B689A627B680D4A934203D13B681A69F2
:102AFC007B681A637B6801225A617B681B6903F04F
:102B0C000103002B05D07B681B6923F001027B6855
:102B1C001A6100BF1437BD4680BC7047002C0140C1
:102B2C000004004080B487B000AFF860B9607A60F0
:102B3C00FB681B6A7B61FB681B6A23F00102FB6864
:102B4C001A62FB689B693B613B6923F0F0033B61B4
:102B5C007B681B013A6913433B617B6923F00A03D1
:102B6C007B617A69BB6813437B61FB683A699A6144
:102B7C00FB687A691A6200BF1C37BD4680BC70477F
:102B8C0080B487B000AFF860B9607A60FB681B6AEC
:102B9C007B61FB681B6A23F01002FB681A62FB68FE
:102BAC009B693B613B6923F470433B617B681B036E
:102BBC003A6913433B617B6923F0A0037B61BB68DB
:102BCC001B017A6913437B61FB683A699A61FB6864
:102BDC007A691A6200BF1C37BD4680BC704780B44E
:102BEC0085B000AF786039607B689B68FB60FB68E0
:102BFC0023F07003FB603A68FB68134343F0070350
:102C0C00FB607B68FA689A6000BF1437BD4680BCD5
:102C1C00704780B487B000AFF860B9607A603B60F1
:102C2C00FB689B687B617B6923F47F437B613B681A
:102C3C001A027B681A43BB6813437A6913437B619E
:102C4C00FB687A699A6000BF1C37BD4680BC704730
:102C5C0080B485B000AF786039607B6893F83C3005
:102C6C00012B01D1022341E07B68012283F83C2037
:102C7C007B68022283F83D207B681B685B68FB60E5
:102C8C007B681B689B68BB60FB6823F07003FB6070
:102C9C003B681B68FA681343FB607B681B68FA6827
:102CAC005A607B681B68144A934209D07B681B6886
:102CBC00B3F1804F04D07B681B68104A93420CD14F
:102CCC00BB6823F08003BB603B685B68BA68134346
:102CDC00BB607B681B68BA689A607B68012283F8CA
:102CEC003D207B68002283F83C20002318461437D3
:102CFC00BD4680BC704700BF002C01400004004062
:102D0C0080B483B000AF786000BF0C37BD4680BC88
:102D1C00704780B483B000AF786000BF0C37BD46FD
:102D2C0080BC704770B500260C4D0D4C641BA41074
:102D3C00A64209D100F022F800260A4D0A4C641B69
:102D4C00A410A64205D170BD55F8043B9847013636
:102D5C00EEE755F8043B98470136F2E7C42D00081E
:102D6C00C42D0008C42D0008C82D000803460244D9
:102D7C00934200D1704703F8011BF9E7F8B500BF87
:102D8C00F8BC08BC9E467047F8B500BFF8BC08BC40
:042D9C009E46704798
:102DA00000000000000000000102030406070809FB
:102DB00002030405060708090A0B0C0D0E0F10107C
:042DC000010200000C
:042DC40031010008D1
:042DC8000D010008F1
:102DCC0088130000D0070000B80B000000127A0036
:082DDC001000000001000000DE
:0400000508001711C7
:00000001FF
